:100000000C9434000C9451000C9451000C94510049
:100010000C9451000C9451000C9451000C948B00E2
:100020000C9451000C9451000C9451000C9451000C
:100030000C9451000C9451000C9451000C945100FC
:100040000C9453000C9451000C94B4010C94E801EE
:100050000C9451000C9451000C9451000C945100DC
:100060000C9451000C94510011241FBECFEFD4E02A
:10007000DEBFCDBF11E0A0E0B1E0E2EAFBE002C0EC
:1000800005900D92A232B107D9F711E0A2E2B1E0DA
:1000900001C01D92A337B107E1F70E942B010C9418
:1000A000CF050C9400001F920F920FB60F921124EF
:1000B0008F939F93DF93CF93CDB7DEB78091690184
:1000C00090916A01019790936A01809369018091F0
:1000D000690190916A010097A9F48091660190915D
:1000E000670190936C0180936B01109267011092ED
:1000F000660182E19AE790936A018093690181E049
:1001000080936801CF91DF919F918F910F900FBEE7
:100110000F901F9018951F920F920FB60F921124F7
:100120008F939F93DF93CF93CDB7DEB78091660116
:100130009091670102969093670180936601CF9139
:10014000DF919F918F910F900FBE0F901F90189588
:10015000DF93CF93CDB7DEB710926C0110926B0195
:10016000109267011092660182E19AE790936A010A
:10017000809369011092680184E490E0FC01108290
:1001800085E490E0FC01108286E490E0FC0110829E
:100190008EE690E021E0FC01208385E490E0FC0104
:1001A000108286EB90E020E2FC01208380EB90E05F
:1001B00023ECFC01208381EB90E028E0FC0120830C
:1001C000000086EB90E0FC018081882F90E0807138
:1001D00090700097B1F782EB90E0FC011082000074
:1001E00086EB90E0FC018081882F90E08870907011
:1001F0000097B1F783EB90E021E0FC01208380E7DA
:1002000090E022E0FC01208380E090E00E948301E6
:1002100080E091E090936E0180936D0180916D017B
:1002200090916E019093700180936F0181EB90E04B
:1002300021EB30E0F90120812160FC01208385E47D
:1002400090E025E430E0F90120812160FC01208369
:10025000CF91DF910895DF93CF9300D0CDB7DEB774
:1002600084E590E0FC01108288E10FB6F894809359
:100270006000109260000FBEF8940E94A80078946D
:100280008EE091E00E94DC0203C0000001C000008B
:10029000809168018130D1F420916B0130916C0123
:1002A00000D000D08DB79EB7019641E151E0FC012E
:1002B00051834083FC01338322830E94C7020F9045
:1002C0000F900F900F9010926801E2CF0E9476027B
:1002D0008823D9F280916D0190916E010E94850270
:1002E0009A83898389819A818035910581F688E195
:1002F00090E028E00FB6F894A895809360000FBEB8
:1003000020936000FFCFDF93CF9300D00F92CDB743
:10031000DEB79B838A8384EC90E02A813B81FC01D9
:100320003183208380EC90E022E0FC01208381EC8B
:1003300090E028E9FC01208382EC90E026E0FC01BB
:1003400020831982898180934301898180934201AE
:100350008981809365018981809364010F900F905A
:100360000F90CF91DF9108951F920F920FB60F92C9
:1003700011242F938F939F93EF93FF93DF93CF934A
:1003800000D0CDB7DEB786EC90E0FC018081898398
:10039000809142018F5F8F718A838A8180934201AD
:1003A000809143018A81882F90E08E5D9E4F298144
:1003B000FC0120830F900F90CF91DF91FF91EF917F
:1003C0009F918F912F910F900FBE0F901F901895B6
:1003D0001F920F920FB60F9211242F933F938F937A
:1003E0009F93EF93FF93DF93CF930F92CDB7DEB739
:1003F00090916401809165019817A1F08091650149
:100400008F5F8F71898389818093650186EC90E08D
:100410002981222F30E02C5B3E4FF9012081FC0125
:10042000208309C081EC90E021EC30E0F9012081CB
:100430002F7DFC0120830F90CF91DF91FF91EF91F1
:100440009F918F913F912F910F900FBE0F901F9012
:100450001895DF93CF930F92CDB7DEB70000909140
:100460004201809143019817D1F3809143018F5F3E
:100470008F7189838981809343018981882F90E0DE
:100480008E5D9E4FFC018081882F90E00F90CF9170
:10049000DF910895DF93CF9300D0CDB7DEB78A8385
:1004A000809164018F5F8F71898300008091650165
:1004B00099819817D9F38981882F90E08C5B9E4FA2
:1004C0002A81FC01208389818093640181EC90E082
:1004D00021EC30E0F90120812062FC01208380E0E2
:1004E00090E00F900F90CF91DF910895DF93CF931D
:1004F000CDB7DEB7209142019091430181E02917E9
:1005000009F480E0CF91DF910895CF93DF93EC0160
:100510003B8130FF36C036FF09C03F7B3B838E8175
:100520009F8101969F838E832A8129C032FF0FC04D
:10053000E881F9818081992787FD9095009719F4CA
:1005400030623B831EC03196F983E88311C0EA858F
:10055000FB85CE01099597FF0BC02B813FEF8F3FA5
:10056000930711F480E101C080E2822B8B8309C0E4
:100570002E813F812F5F3F4F3F832E83282F30E016
:1005800002C02FEF3FEFC901DF91CF910895A0E0A6
:10059000B0E0EDECF2E00C94A805FE013596619117
:1005A000719180916F0190917001AF010E941103D0
:1005B0002096E2E00C94C405EF92FF920F931F93F4
:1005C000CF93DF938C01E0916F01F09170018381F3
:1005D00081FF1FC0C0E0D0E00AC0DB011896ED919A
:1005E000FC9119970995009711F0CFEFDFEFF80113
:1005F00081918F0160916F0170917001882369F77B
:10060000DB011896ED91FC9119978AE00995009706
:1006100011F0CFEFDFEFCE01CDB7DEB7E6E00C94FF
:10062000C005ACE0B0E0E7E1F3E00C9498056C01A4
:100630001B018A01FC0117821682838181FFD1C1CF
:100640002E010894411C511CF6019381F10193FD88
:10065000859193FF81911F01882309F4BEC18532E2
:1006600039F493FD859193FF81911F01853229F41F
:1006700090E0B6010E940E05E7CFEE24FF2420E0B3
:100680002032B0F48B3269F08C3228F4803251F091
:10069000833271F40BC08D3239F0803349F421601C
:1006A0002CC02260246029C0286027C0206125C09A
:1006B00027FD2CC0382F30533A3098F426FF08C05D
:1006C0008E2D880FE82EEE0CEE0CE80EE30E15C012
:1006D0008F2D880FF82EFF0CFF0CF80EF30E206202
:1006E0000CC08E3221F426FD78C1206406C08C3601
:1006F00011F4206802C0883649F4F10193FD859118
:1007000093FF81911F01882309F0BACF982F955448
:10071000933018F09052933028F40C5F1F4FFFE392
:10072000F9830DC0833631F0833771F0833509F0DA
:1007300060C022C0F801808189830E5F1F4F420193
:1007400071E0A72EB12C16C062E0662E712C600EEF
:10075000711EF8018080918026FF03C06E2D70E02D
:1007600002C06FEF7FEFC4012C870E9403055C017C
:1007700083012C852F7717C052E0652E712C600EF7
:10078000711EF8018080918026FF03C06E2D70E0FD
:1007900002C06FEF7FEFC4012C870E94F8045C0158
:1007A0002C852068830123FD20C008C080E290E0F2
:1007B000B6012C870E940E05FA942C858F2D90E0AF
:1007C000A816B90698F311C0F40127FD859127FFFB
:1007D00081914F0190E0B6012C870E940E052C8577
:1007E000F110FA940894A108B108A114B10461F7BA
:1007F000F1C0843611F0893649F527FF08C0F801A9
:1008000060817181828193810C5F1F4F09C0F80163
:1008100060817181882777FD8095982F0E5F1F4F2B
:100820004FE6B42EB22297FF09C09095809570953F
:1008300061957F4F8F4F9F4FF0E8BF2AA2012AE0BA
:1008400030E00E943A05782E741845C0853731F49F
:100850003FEEB32EB2222AE030E025C099EFB92E48
:10086000B2228F36C1F0803720F4883509F0B5C048
:100870000DC0803721F0883709F0AFC002C020E1F9
:10088000B22AB4FE0BC084E0B82A08C0B4FE09C086
:10089000E6E0BE2A06C028E030E005C020E130E0F6
:1008A00002C020E132E0B7FE08C0F801608171812A
:1008B000828193810C5F1F4F07C0F80160817181B5
:1008C00080E090E00E5F1F4FA2010E943A05782E53
:1008D0007418FFE7BF22B6FE0BC02EEFB2227E14C3
:1008E00038F4B4FE07C0B2FC05C08FEEB82202C0D7
:1008F000A72C01C0AE2C8B2D90E0B4FE0DC0FE01E4
:10090000E70DF11D2081203319F4E9EEBE2209C064
:10091000A394B2FE06C004C086789070009709F0D8
:10092000A3948B2C9924B3FC14C0B0FE0FC0AF1459
:1009300028F4E72CEF0CEA18AF2C08C0E72C06C00F
:1009400080E290E0B6010E940E05A394AF14C0F3BC
:1009500004C0AF1410F4FA1801C0FF2484FE0FC0C5
:1009600080E390E0B6010E940E0582FE1FC081FE6A
:1009700003C088E590E010C088E790E00DC0C40196
:1009800086789070009791F081FC02C080E201C0EF
:100990008BE2B7FC8DE290E0B6010E940E0506C026
:1009A00080E390E0B6010E940E05EA947E14C0F345
:1009B0007A94F201E70DF11D808190E0B6010E946A
:1009C0000E057720A9F706C080E290E0B6010E94EC
:1009D0000E05FA94FF20C1F737CEF6012681378144
:1009E00002C02FEF3FEFC9012C96E2E10C94B40551
:1009F000FC010590615070400110D8F780959095EA
:100A00008E0F9F1F0895FC016150704001900110EE
:100A1000D8F7809590958E0F9F1F08950F931F9381
:100A2000CF93DF938C01EB018B8181FF1BC082FF91
:100A30000DC02E813F818C819D812817390764F478
:100A4000E881F9810193F983E88306C0E885F98597
:100A5000802F0995009731F48E819F8101969F83A5
:100A60008E8302C00FEF1FEFC801DF91CF911F915E
:100A70000F910895FA01AA27283051F1203181F110
:100A8000E8946F936E7F6E5F7F4F8F4F9F4FAF4F96
:100A9000B1E03ED0B4E03CD0670F781F891F9A1FA9
:100AA000A11D680F791F8A1F911DA11D6A0F711D5D
:100AB000811D911DA11D20D009F468943F912AE069
:100AC000269F11243019305D3193DEF6CF01089551
:100AD000462F4770405D4193B3E00FD0C9F7F6CF82
:100AE000462F4F70405D4A3318F0495D31FD40524A
:100AF000419302D0A9F7EACFB4E0A69597958795E0
:100B000077956795BA95C9F70097610571050895BE
:100B10009B01AC010A2E069457954795379527956A
:100B2000BA95C9F7620F731F841F951FA01D089502
:100B30002F923F924F925F926F927F928F929F92ED
:100B4000AF92BF92CF92DF92EF92FF920F931F93DB
:100B5000CF93DF93CDB7DEB7CA1BDB0B0FB6F8948C
:100B6000DEBF0FBECDBF09942A88398848885F84CC
:100B70006E847D848C849B84AA84B984C884DF803D
:100B8000EE80FD800C811B81AA81B981CE0FD11D21
:100B90000FB6F894DEBF0FBECDBFED010895F894F7
:020BA000FFCF85
:100BA20000000003000000004A02290200004F4B2F
:100BB200004672657175656E6379203D2025750A60
:020BC2000D0024
:00000001FF
