:100000000C943A000C9457000C9457000C94570031
:100010000C9457000C9457000C9457000C94110446
:100020000C9457000C9457000C9457000C945700F4
:100030000C9457000C9457000C9457000C945700E4
:100040000C9457000C9457000C9453050C947605AF
:100050000C9457000C9457000C9457000C945700C4
:100060000C9457000C9457006364696E6F7073753D
:1000700078585B0011241FBECFEFD4E0DEBFCDBFA8
:1000800011E0A0E0B1E0E2EBF8E102C005900D92D2
:10009000AA35B107D9F711E0AAE5B1E001C01D9278
:1000A000A23FB107E1F70E94E0030C94570C0C94B7
:1000B000000087B18F6087B98AB1806F8AB987B134
:1000C0008F7C87B988B18F6088B98BB1806F8BB90D
:1000D00088B1806388B91092B90082E08093B8003B
:1000E000089524EA2093BC002091BC0027FFFCCF98
:1000F0002091B900287F283011F0203171F540930C
:10010000BB0024E82093BC002091BC0027FFFCCF5B
:100110002091B900287F2831A1F417C091919093C4
:10012000BB002093BC009091BC0097FFFCCF909146
:10013000B900987F983219F0903319F40EC06150CD
:1001400007C084E98093BC0008C0E82FF92F24E899
:100150009E2F981B662311F701C090E0892F089508
:1001600024EA2093BC002091BC0027FFFCCF209103
:10017000B900287F283011F02031B9F54160409353
:10018000BB0024E82093BC002091BC0027FFFCCFDB
:100190002091B900287F203441F5E82FF92F34EC65
:1001A00024E81BC0613019F42093BC0002C03093D6
:1001B000BC009091BC0097FFFCCF9091B900987F54
:1001C000903511F0983529F461509091BB009193CE
:1001D00004C084E98093BC0008C09E2F981B66234E
:1001E00009F784E98093BC0001C090E0892F08954D
:1001F0009F92AF92BF92CF92DF92EF92FF920F93B6
:100200001F93DF93CF9300D000D0CDB7DEB785E04A
:10021000898300E010E031E0E32EF12C6E010894B8
:10022000C11CD11C22E0A22EB12CAC0EBD1EC701F8
:10023000002E02C0880F991F0A94E2F720915A01FC
:1002400030915B0182239323009781F0A801440F32
:10025000551F80E6982E942AC60161E0492D0E9420
:100260007100C50163E0492D0E94B0000F5F1F4F70
:1002700000311105E1F60F900F900F900F90CF9184
:10028000DF911F910F91FF90EF90DF90CF90BF9083
:10029000AF909F90089510925D0110925C011092B2
:1002A0005F0110925E0110929001089520915E010D
:1002B00030915F012B30310539F020915E01309192
:1002C0005F012F5F3F4F02C020E030E030935F01BD
:1002D00020935E0140915E0150915F0120915C018D
:1002E00030915D014217530719F421E020939001EA
:1002F000E0915E01F0915F012091900121119068E1
:10030000EE0FFF1FEE0FFF1FE05AFE4F6083718359
:1003100082839383089590640E94560108958F927A
:100320009F92AF92BF92CF92DF92EF92FF920F9384
:100330001F93DF93CF9300D00F92CDB7DEB700E1CC
:1003400010E081E0A82EB12C4E010894811C911C74
:10035000412F50E0C501012E02C0880F991F0A9459
:10036000E2F720915A0130915B0182239323009799
:10037000B9F1440F551F4066C40163E00E94B0000C
:10038000212F30E040E050E0833021F5698170E0BA
:1003900080E090E0CB0177276627CA80DD24EE2439
:1003A000FF24FE2CED2CDC2CCC246C297D298E29FD
:1003B0009F29CB80DD24EE24FF246C297D298E2902
:1003C0009F29522F442733272227622B732B842BFC
:1003D000952B04C0922F8827772766270E94560105
:1003E0001F5F015009F0B4CF0F900F900F90CF9185
:1003F000DF911F910F91FF90EF90DF90CF90BF9012
:10040000AF909F908F90089520915C0130915D0195
:1004100080915E0190915F012817390711F1809159
:100420005C0190915D018B30910531F080915C0110
:1004300090915D01019602C080E090E090935D0193
:1004400080935C01E0915C01F0915D01EE0FFF1F74
:10045000EE0FFF1FE05AFE4F208131814281538110
:1004600003C020E030E0A901B901CA01089520913C
:100470005C0130915D0180915E0190915F01821776
:10048000930748F020915E0130915F0180915C01FB
:1004900090915D010AC020915E0130915F018091D1
:1004A0005C0190915D01245F3F4F281B390BC9010E
:1004B00008950F931F93DF93CF93CDB7DEB7C7583F
:1004C000D0400FB6F894DEBF0FBECDBF1B821A829C
:1004D0001C821D821E821F8288E10FB6F8948093D1
:1004E0006000109260000FBE80E091E00E945D0607
:1004F0008E01085F1F4F4091EC015091ED01C80142
:1005000060E870E00E941406009709F4E3C08DB71C
:100510009EB70A970FB6F8949EBF0FBE8DBFEDB77A
:10052000FEB73196ADB7BEB712961C930E931197D6
:1005300084E091E093838283CE0101969583848346
:10054000CE01029697838683CE0104969187808799
:100550000E949206EDB7FEB73A960FB6F894FEBF2A
:100560000FBEEDBF89818D3609F48DC08E3638F40B
:10057000803509F4A3C0853609F0ACC008C08437C3
:1005800059F1863731F0833709F0A4C04CC082E0BE
:10059000A2C08DB79EB70A970FB6F8949EBF0FBE44
:1005A0008DBFEDB7FEB731968EE091E0ADB7BEB727
:1005B00012969C938E93119782E090E093838283AE
:1005C0001582148297838683918780870E944806CC
:1005D000EDB7FEB73A9651C06A817B81611571050E
:1005E00021F080E090E00E94E3040E94320500D0F8
:1005F00000D000D021E331E0ADB7BEB712963C93F6
:100600002E931197EDB7FEB763837483858396832A
:100610000E9448068DB79EB706960FB6F8949EBF07
:100620000FBE8DBF57C04C815D816E817F818A81F5
:100630009B810E94B404ADB7BEB718970FB6F8946B
:10064000BEBF0FBEADBFEDB7FEB7319689E391E0F7
:1006500012969C938E9311978A819B8193838283B8
:100660008C819D81AE81BF8184839583A683B7836E
:100670000E944806EDB7FEB738960FB6F894FEBF55
:100680000FBEEDBF27C08A819B8190935B01809351
:100690005A0100D000D024E431E0ADB7BEB71296C5
:1006A0003C932E93119714969C938E9313970E94CC
:1006B00048060F900F900F900F900CC028E088E133
:1006C00090E00FB6F894A895809360000FBE209339
:1006D0006000FFCF81E0C957DF4F0FB6F894DEBF4F
:1006E0000FBECDBFCF91DF911F910F9108951F9342
:1006F000DF93CF9300D0CDB7DEB70E9437020097CB
:1007000099F00E940402182F892F6A8379830E942E
:10071000B205812F0E94B2057981872F0E94B20510
:100720006A81862F0E94B2050E94CD04882359F465
:100730000EC08091EC019091ED010E94D2058436AB
:1007400011F40E94E0040E94C905882391F70E94D9
:100750003702009791F40E94CD04882371F480E25F
:100760000E94B20580E00E94B20580E00E94B205BE
:1007700080E00E94B20581E001C083E00F900F90FD
:10078000CF91DF911F91089580E090E00E943D0598
:100790008FE891E06BE871E00E94F8040E94590034
:1007A0008BE491E09093ED018093EC019093EF0145
:1007B0008093EE0110925B0110925A017894089593
:1007C0001F93CF93DF9314BE88E10FB6F894809304
:1007D0006000109260000FBEF89480E0C8E1D0E0A5
:1007E0001FE0813049F0813028F0823041F08330C1
:1007F000C1F713C00E94C4030E945902F2CF0FB682
:10080000F894A895C09360000FBE109360000E94FA
:100810004B010E94F8000E94D004A8950E94770323
:10082000E0CF1F920F920FB60F9211242F933F9398
:100830004F935F936F937F938F939F93AF93BF93E8
:10084000EF93FF938091E0019091E10101969093E5
:10085000E1018093E00180919501882309F443C070
:100860008091E6019091E70101969093E7018093D2
:10087000E6012091E2013091E3018217930799F597
:10088000E091E401F091E501099580919601909144
:100890009701A0919801B09199010196A11DB11DF8
:1008A0008093960190939701A0939801B09399013A
:1008B00020919601309197014091980150919901B2
:1008C0008091E8019091E901A091EA01B091EB01DA
:1008D000281739074A075B0711F410929501109207
:1008E000E7011092E6018091E0019091E10124E09E
:1008F0008030920741F58091910190919201A091F1
:100900009301B09194010196A11DB11D80939101B5
:1009100090939201A0939301B093940180919501DB
:10092000882369F060919101709192018091930107
:1009300090919401E091DE01F091DF010995109210
:10094000E1011092E001FF91EF91BF91AF919F9172
:100950008F917F916F915F914F913F912F910F9068
:100960000FBE0F901F9018959093E3018093E201C2
:100970004093E8015093E9016093EA017093EB0121
:10098000109296011092970110929801109299017D
:100990001092E7011092E601089580919501089563
:1009A00081E0809395011092960110929701109228
:1009B0009801109299011092E7011092E6010895B2
:1009C0001092950108951092B20022E023BD10927A
:1009D000E7011092E6011092E1011092E0016093AC
:1009E00091017093920180939301909394010895E3
:1009F0009093E5018093E4017093DF016093DE0141
:100A000082E083BD1092700080E28093B600109265
:100A1000B2008091B60084FDFCCF17BA8FE18093BD
:100A2000B30082E08093B0001092B1008093700018
:100A30001092E7011092E6011092E3011092E20198
:100A4000109295011092E1011092E0011092910133
:100A500010929201109293011092940181E0809380
:100A6000B10008952091910130919201409193013C
:100A700050919401B901CA0108959093C5008093E3
:100A8000C40082E08093C00088E98093C10086E0C2
:100A90008093C20010929B0110929A0110929D01C6
:100AA00010929C0108951F920F920FB60F9211247D
:100AB0002F938F939F93EF93FF939091C600809114
:100AC0009A018F5F8F7180939A0120919B01EEEBC9
:100AD000F1E0E80FF11D9083FF91EF919F918F91CD
:100AE0002F910F900FBE0F901F9018951F920F928D
:100AF0000FB60F9211248F939F93EF93FF939091D2
:100B00009C0180919D01981769F0E0919D01EF5F34
:100B1000EF71E0939D01F0E0E256FE4F80818093FB
:100B2000C60005C08091C1008F7D8093C100FF91F8
:100B3000EF919F918F910F900FBE0F901F9018957E
:100B400090919A0180919B019817D1F3E0919B01BC
:100B5000EF5FEF71E0939B01F0E0E254FE4F808184
:100B600090E0089590919C019F5F9F7120919D015D
:100B70009217E1F3E92FF0E0E256FE4F8083909365
:100B80009C018091C10080628093C10080E090E070
:100B9000089520919A0190919B0181E0291709F411
:100BA00080E00895CF93DF93EC013B8130FF36C0A6
:100BB00036FF09C03F7B3B838E819F8101969F83D7
:100BC0008E832A8129C032FF0FC0E881F98180819C
:100BD000992787FD9095009719F430623B831EC0DA
:100BE0003196F983E88311C0EA85FB85CE0109952A
:100BF00097FF0BC02B813FEF8F3F930711F480E1EC
:100C000001C080E2822B8B8309C02E813F812F5F40
:100C10003F4F3F832E83282F30E002C02FEF3FEF5E
:100C2000C901DF91CF910895A0E0B0E0EAE1F6E0DC
:100C30000C942A0CEC016A01FA01838180FF1FC029
:100C400016161706E4F47B010894E108F1088E01FA
:100C500010C0C6010E94D205FFEF8F3F9F0779F0B9
:100C6000F80181938F018A30910531F00894E108F1
:100C7000F108E114F10469F7F801108202C0C0E044
:100C8000D0E07E01CE01CDB7DEB7E8E00C94460C93
:100C9000A0E0B0E0EEE4F6E00C94300CFE013596F6
:100CA000619171918091EE019091EF01AF010E94ED
:100CB000AC062096E2E00C944C0CEF92FF920F935E
:100CC0001F93CF93DF938C01E091EE01F091EF0140
:100CD000838181FF1FC0C0E0D0E00AC0DB0118960D
:100CE000ED91FC9119970995009711F0CFEFDFEF87
:100CF000F80181918F016091EE017091EF018823DD
:100D000069F7DB011896ED91FC9119978AE0099536
:100D1000009711F0CFEFDFEFCE01CDB7DEB7E6E001
:100D20000C94480CAEE0B0E0E8E9F6E00C94300C2E
:100D300085E08C838B899C899A8389839E01295EB7
:100D40003F4FCE0101966D897E89A9010E94280A34
:100D50002E96E2E00C944C0CACE0B0E0E2EBF6E056
:100D60000C94200C6C011B018A01FC011782168275
:100D7000838181FFD1C12E010894411C511CF601D1
:100D80009381F10193FD859193FF81911F01882348
:100D900009F4BEC1853239F493FD859193FF8191A9
:100DA0001F01853229F490E0B6010E94780BE7CF4D
:100DB000EE24FF2420E02032B0F48B3269F08C3234
:100DC00028F4803251F0833271F40BC08D3239F047
:100DD000803349F421602CC02260246029C028603F
:100DE00027C0206125C027FD2CC0382F30533A3052
:100DF00098F426FF08C08E2D880FE82EEE0CEE0C1E
:100E0000E80EE30E15C08F2D880FF82EFF0CFF0C97
:100E1000F80EF30E20620CC08E3221F426FD78C14C
:100E2000206406C08C3611F4206802C0883649F46C
:100E3000F10193FD859193FF81911F01882309F0B2
:100E4000BACF982F9554933018F09052933028F4DD
:100E50000C5F1F4FFFE3F9830DC0833631F08337FA
:100E600071F0833509F060C022C0F8018081898368
:100E70000E5F1F4F420171E0A72EB12C16C062E039
:100E8000662E712C600E711EF8018080918026FF05
:100E900003C06E2D70E002C06FEF7FEFC4012C879E
:100EA0000E946D0B5C0183012C852F7717C052E0E7
:100EB000652E712C600E711EF8018080918026FFD6
:100EC00003C06E2D70E002C06FEF7FEFC4012C876E
:100ED0000E94620B5C012C852068830123FD20C0E9
:100EE00008C080E290E0B6012C870E94780BFA944B
:100EF0002C858F2D90E0A816B90698F311C0F40147
:100F000027FD859127FF81914F0190E0B6012C8745
:100F10000E94780B2C85F110FA940894A108B1086E
:100F2000A114B10461F7F1C0843611F0893649F596
:100F300027FF08C0F80160817181828193810C5F75
:100F40001F4F09C0F80160817181882777FD809566
:100F5000982F0E5F1F4F4FE6B42EB22297FF09C0A5
:100F600090958095709561957F4F8F4F9F4FF0E8DA
:100F7000BF2AA2012AE030E00E94BF0B782E74182D
:100F800045C0853731F43FEEB32EB2222AE030E07F
:100F900025C099EFB92EB2228F36C1F0803720F4E8
:100FA000883509F0B5C00DC0803721F0883709F0C9
:100FB000AFC002C020E1B22AB4FE0BC084E0B82A60
:100FC00008C0B4FE09C0E6E0BE2A06C028E030E052
:100FD00005C020E130E002C020E132E0B7FE08C0E9
:100FE000F80160817181828193810C5F1F4F07C07E
:100FF000F8016081718180E090E00E5F1F4FA201D7
:101000000E94BF0B782E7418FFE7BF22B6FE0BC0FC
:101010002EEFB2227E1438F4B4FE07C0B2FC05C035
:101020008FEEB82202C0A72C01C0AE2C8B2D90E011
:10103000B4FE0DC0FE01E70DF11D2081203319F42F
:10104000E9EEBE2209C0A394B2FE06C004C08678B1
:101050009070009709F0A3948B2C9924B3FC14C0D2
:10106000B0FE0FC0AF1428F4E72CEF0CEA18AF2C39
:1010700008C0E72C06C080E290E0B6010E94780B21
:10108000A394AF14C0F304C0AF1410F4FA1801C055
:10109000FF2484FE0FC080E390E0B6010E94780B2D
:1010A00082FE1FC081FE03C088E590E010C088E783
:1010B00090E00DC0C40186789070009791F081FC9B
:1010C00002C080E201C08BE2B7FC8DE290E0B60185
:1010D0000E94780B06C080E390E0B6010E94780B76
:1010E000EA947E14C0F37A94F201E70DF11D808139
:1010F00090E0B6010E94780B7720A9F706C080E245
:1011000090E0B6010E94780BFA94FF20C1F737CE29
:10111000F6012681378102C02FEF3FEFC9012C96DF
:10112000E2E10C943C0C20FD09C0FC0123FD05C04C
:1011300022FF02C073836283518340830895EF923C
:10114000FF920F931F9344FD10C046FD10C0DB01BA
:10115000FC01AA0FBB1FEE1FFF1F1094D1F76A0FEF
:101160007B1F8E1F9F1F31E003C033E001C034E0BE
:10117000660F771F881F991F3150D1F77B018C01B3
:10118000E20EF11C011D111DA8019701B701CA0152
:101190001F910F91FF90EF900895EF92FF920F93A0
:1011A0001F93CF93DF938C01C8010E94D205EC01FD
:1011B00097FD09C00E944F0B0097B1F77E01CE0149
:1011C000B8010E94A40BCE01CDB7DEB7E6E00C94C7
:1011D000480C8F929F92AF92BF92DF92EF92FF9254
:1011E0000F931F93DF93CF930F92CDB7DEB74C01D0
:1011F000D62E5A01122F0E94D2058B3219F08D3251
:1012000049F41068DA9409F46CC0C4010E94D20554
:1012100097FD67C0312F3D7F232F2073F1F480337A
:10122000E1F4DA9409F448C0C40139830E94D2057C
:10123000398197FD41C03260883711F0883559F403
:101240003064DA94C9F1C40139830E94D20539812E
:1012500097FF03C031C036FF3061EE24FF248701C1
:10126000282F2053283090F034FD09C02A3070F028
:1012700036FF05C02F7D422F4151463030F0B4017A
:1012800039830E94A40B398114C02750C801B701CB
:10129000432F39830E949F087B018C013981326082
:1012A000DA9469F0C40139830E94D205398197FF2D
:1012B000D7CF31FD04C015C0EE24FF24870137FFCE
:1012C00008C010950095F094E094E11CF11C011DFC
:1012D000111DC501B801A701232F0E94930881E0C9
:1012E00001C080E00F90CF91DF911F910F91FF908F
:1012F000EF90DF90BF90AF909F908F900895A1E204
:10130000B0E0E5E8F9E00C94240C6C018A01790165
:101310009E012F5F3F4F80E2F90111928A95E9F714
:10132000F601838080E090E0BB24992470E0A1E086
:10133000B0E0F70183FCA59083FEA1907F01AA2075
:1013400009F47FC0FA2DFE3511F4009751F1472FB3
:1013500050E04817590744F44A2D4D3551F14D32AC
:1013600019F4992001F103C0992009F4BA2C4A2DEF
:10137000469546954695F901E40FF11D4A2D4770B3
:101380003D0102C0660C771C4A95E2F790809628D2
:101390009082AB1459F0AB1410F4A394E8CFAA9444
:1013A000E6CF71E004C09924939401C0992401967A
:1013B000C0CF992019F08E8180628E83772351F0FF
:1013C000CE018196FE013196208120952193E81768
:1013D000F907D1F7BB24B3944E010894811C911CEA
:1013E00001C0BB24C60169A30E94D20569A197FD73
:1013F00020C0282F269526952695F401E20FF11D91
:10140000208130E0AC014770507002C035952795BF
:101410004A95E2F720FD04C0B6010E94A40B09C062
:101420000115110519F0F80181938F016150C9F67A
:1014300002C0BB2031F40115110529F0F80110821A
:1014400002C0EE24FF24C701A196EEE00C94400CEC
:101450004F925F926F927F929F92AF92BF92CF9284
:10146000DF92EF92FF920F931F93DF93CF930F9230
:10147000CDB7DEB77C016B013A01FC011782168201
:1014800000E0E9C0812F90E00E944F0B009721F00F
:10149000C7010E94CD08DFC0153241F4F601A3FC5C
:1014A0003591A3FE31916F01353261F4C7010E947D
:1014B000D20597FDDCC0181709F4CDC0B7010E9412
:1014C000A40BD7C03A3239F4A3FC3591A3FE319175
:1014D0006F0111E001C010E099240FC01260692D66
:1014E00070E080E090E040E20E949F08962EF601B6
:1014F000A3FC3591A3FE31916F01232F20532A3095
:1015000068F311FF03C0992019F4B3C099249A9489
:10151000383619F03C3689F409C0F601A3FC359140
:10152000A3FE31916F01383641F418601460F60162
:10153000A3FC3591A3FE31916F01332309F499C0C7
:1015400088E690E0632F70E039830E94570B398161
:10155000009709F48EC0812F10FD08C0F301408070
:10156000518042E050E0640E751E02C044245524B0
:101570003E3651F4F7014681578160E070E0C201C8
:10158000212F0E94930867C0333691F481FD02C079
:1015900099249394C7010E94D20597FD68C0411415
:1015A000510419F0F20181932F019A9499F751C0D7
:1015B0003B3559F4C701692DA20196010E947F09AC
:1015C0006C01009709F045C03FC0C70139830E94F4
:1015D000CD08398197FD4BC03F3659F1303728F49B
:1015E000343629F1393639F527C0333719F0353714
:1015F00011F51DC0C7010E94D2055C0197FD11C005
:101600000E944F0B009729F0C501B7010E94A40B5F
:1016100008C04114510419F0F201A1922F019A94CB
:1016200049F741145104A9F0F201108212C010626E
:1016300003C0106101C01064C701692DA201212FF0
:101640000E94E908882329F4F7018381807379F4E3
:1016500010C010FF0F5FF701A380F601A3FC1591E6
:10166000A3FE11916F01112309F00CCF02C00023DA
:1016700011F010E002C00FEF1FEFC8010F90CF91E3
:10168000DF911F910F91FF90EF90DF90CF90BF906F
:10169000AF909F907F906F905F904F9008959111C1
:1016A000CCC0803219F089508550D0F70895FC01E4
:1016B0000590061621F00020D9F7C0010895319752
:1016C000CF010895FC010590615070400110D8F7DA
:1016D000809590958E0F9F1F0895FC01615070407A
:1016E00001900110D8F7809590958E0F9F1F089557
:1016F0000F931F93CF93DF938C01EB018B8181FFBD
:101700001BC082FF0DC02E813F818C819D812817D7
:10171000390764F4E881F9810193F983E88306C00D
:10172000E885F985802F0995009731F48E819F8196
:1017300001969F838E8302C00FEF1FEFC801DF91D8
:10174000CF911F910F910895FB01238120FF13C0BA
:1017500026FD11C03FEF8F3F930769F0828320641D
:101760002F7D238326813781215030403783268384
:10177000282F30E002C02FEF3FEFC9010895FA0192
:10178000AA27283051F1203181F1E8946F936E7FC0
:101790006E5F7F4F8F4F9F4FAF4FB1E03ED0B4E0B1
:1017A0003CD0670F781F891F9A1FA11D680F791FF2
:1017B0008A1F911DA11D6A0F711D811D911DA11D03
:1017C00020D009F468943F912AE0269F1124301913
:1017D000305D3193DEF6CF010895462F4770405DAE
:1017E0004193B3E00FD0C9F7F6CF462F4F70405D5D
:1017F0004A3318F0495D31FD4052419302D0A9F7B8
:10180000EACFB4E0A6959795879577956795BA95B1
:10181000C9F700976105710508959B01AC010A2E77
:1018200006945795479537952795BA95C9F7620F4E
:10183000731F841F951FA01D089599278827089559
:101840002F923F924F925F926F927F928F929F92D0
:10185000AF92BF92CF92DF92EF92FF920F931F93BE
:10186000CF93DF93CDB7DEB7CA1BDB0B0FB6F8946F
:10187000DEBF0FBECDBF09942A88398848885F84AF
:101880006E847D848C849B84AA84B984C884DF8020
:10189000EE80FD800C811B81AA81B981CE0FD11D04
:1018A0000FB6F894DEBF0FBECDBFED010895F894DA
:0218B000FFCF68
:1018B2004F4B0D00256320257520256C7500506F58
:1018C2007765724D6F6E0D0A204857207625642E7B
:1018D20025640D0A205357207625642E25640D0AAF
:1018E20000543D256C750D0A00533D25752C256C61
:1018F200750D0A004D3D25750D0A0000000003001C
:0A190200000000B205A0050000007F
:00000001FF
