:103800000C94341C0C94461C0C94461C0C94461CC2
:103810000C94461C0C94461C0C94461C0C94461CA0
:103820000C94461C0C94461C0C94461C0C94461C90
:103830000C94461C0C94461C0C94461C0C94461C80
:103840000C94461C0C94461C0C94461C0C94461C70
:103850000C94461C0C94461C0C94461C0C94461C60
:103860000C94461C0C94461C11241FBECFEFD4E0D0
:10387000DEBFCDBF11E0A0E0B1E001C01D92A230DB
:10388000B107E1F70E948A1D0C94EC1F0C94001CF8
:103890008093C6008091C00086FFFCCF8091C0005D
:1038A00086608093C000089520E030E006C0A99BA8
:1038B00004C016BCA99A2F5F3F4F4091C00047FD3E
:1038C00003C02817390798F38091C00087FF03C011
:1038D0008091C600089528E088E190E00FB6F89442
:1038E000A895809360000FBE20936000FFCF20E07A
:1038F00030E006C0A99B04C016BCA99A2F5F3F4FB9
:103900004091C00047FD03C02817390798F3809104
:10391000C00087FF03C08091C600089580E008952D
:10392000FF920F931F93CF93DF93EC018A016534CD
:1039300091F40EC0D8018D919C910E94D61F0E94D7
:10394000481CF801808191810196918380832197A1
:10395000209781F72CC0663439F521C007B600FCEA
:10396000FDCFF999FECFF0925700E895D801ED917F
:10397000FC91EE0FFF1F84910E94481CD801ED912D
:10398000FC91EE0FFF1F319684910E94481CF801B4
:1039900080819181019691838083229702C081E189
:1039A000F82E2097D9F603C08FE30E94481CDF91C0
:1039B000CF911F910F91FF9008957F928F929F92C8
:1039C000AF92BF92CF92DF92EF92FF920F931F932D
:1039D000DF93CF93CDB7DEB7C058D0400FB6F89481
:1039E000DEBF0FBECDBF5C018A01653491F56E016B
:1039F0000894C11CD11C4601EE24FF240AC080E1BA
:103A000097E20E94541CD4018D934D010894E11C4F
:103A1000F11CEA14FB0498F307B600FCFDCFEE247A
:103A2000FF2413C0F60161916F01D8018D919C9123
:103A30000E94DE1FF999FECFF801808191810196E5
:103A4000918380830894E11CF11CEA14FB0450F379
:103A500049C0663409F048C0DA01CD90DC90119776
:103A6000CC0CDD1C1196DC92CE927724739424C08A
:103A700080E197E20E94541CE82EFF2480E197E247
:103A80000E94541C982E8824E828F92807B600FCC8
:103A9000FDCFF999FECFD801ED91FC911197070167
:103AA00070925700E895112432961196FC93EE938C
:103AB000EEEFFFEFAE0EBF1EA114B104C9F607B6BC
:103AC00000FCFDCFF999FECF85E0F6018093570009
:103AD000E895D8018D919C911197969587951196AF
:103AE0009C938E938DE001C08FE3C058DF4F0FB6DB
:103AF000F894DEBF0FBECDBFCF91DF911F910F9124
:103B0000FF90EF90DF90CF90BF90AF909F908F90FD
:103B10007F9008952F923F924F925F926F927F9283
:103B20008F929F92AF92BF92CF92DF92EF92FF92CD
:103B30000F931F93DF93CF9300D0CDB7DEB71A82D8
:103B40001982E4B60E2D10E014BE98E10FB6F89479
:103B500090936000109260000FBEF8941092C50020
:103B60001092C40082E08093C0009093C10096E060
:103B70009093C2008AB98DE787BD16BCA99A83E0ED
:103B800085BD8AE00E94481C8DE00E94481C8AE0A6
:103B90000E94481C8DE00E94481C8E2D0E94481CEB
:103BA0008AE00E94481C8DE00E94481CEE24FF24FD
:103BB0004AE0B42E81E090E00E94771C8B3159F1ED
:103BC000E114F104F9F4BA9480E70E94481C8DE6F0
:103BD0000E94481C82E60E94481C8CE60E94481CF9
:103BE00080E20E94481C8B2D805D0E94481C8AE068
:103BF0000E94481C8DE00E94481C37EEE32E33E003
:103C0000F32E03C00894E108F108BB2099F6E114F3
:103C1000F10481F605C0BB2089F4E114F10471F4CC
:103C200007B600FCFDCFF999FECF81E180935700E4
:103C3000E895E0910001F0910101099529E0B22E8B
:103C400095E0992E83E0882E7E010894E11CF11CFA
:103C5000B1E1AB2E80E197E20E94771C843509F434
:103C60009BC1853568F5853409F460C1863490F4CC
:103C7000813409F461C0823430F4882359F38B31E4
:103C800009F090C1E7CF833409F499C0843408F077
:103C9000CDC0FAC0803509F483C1813550F48C342D
:103CA00009F47EC18E3409F412C1863409F07AC158
:103CB00003C1823509F466C0833508F054C110C1D0
:103CC0008C3609F421C18D36B0F4833609F470C006
:103CD000843640F4813631F1823630F5863509F08C
:103CE00061C155C18536C1F1853608F493C0873668
:103CF00009F058C1B1C0833709F42BC1843750F49F
:103D0000803709F424C1823709F4F3C08D3609F0F5
:103D100049C16EC0843709F424C18857823008F045
:103D200041C13AC189E53FC189E50E94481C80E054
:103D30000E94481C80E837C180E197E20E94541C31
:103D4000D82ECC24DA82C98280E197E20E94541CEA
:103D500090E08C299D297DC01A8219820CC007B67B
:103D600000FCFDCFF999FECF80925700E895E0580E
:103D7000FF4FFA83E983E981FA8128E3E030F20713
:103D800070F30EC107B600FCFDCFF999FECFA092EB
:103D90005700E895E981FA81EE0FFF1F3196849173
:103DA0000E94481CE981FA81EE0FFF1F849136C002
:103DB00080E197E20E94541C082F10E0F1C080E1DE
:103DC00097E20E94541C782E66240629172907B60C
:103DD00000FCFDCFF999FECF89819A81FC01EE0F9D
:103DE000FF1F21E0080120935700E895112430C0FF
:103DF000E981FA818CE1E030F80708F0D3C007B61A
:103E000000FCFDCFF999FECFEE0FFF1F90925700F7
:103E1000E895C6C089819A810E94D61F0E94481CDD
:103E200089819A8101969A83898314CF80E197E2F0
:103E30000E94541C682F082F10E007B600FCFDCF2D
:103E400089819A810E94DE1FF999FECF89819A812A
:103E500001969A838983A4C080E197E20E94541C52
:103E6000382E222480E197E20E94541C082F10E093
:103E70000229132980E197E20E94541C682FC8018F
:103E8000A7010E94901CE6CE80E197E20E94541C9C
:103E9000582E442480E197E20E94541C082F10E021
:103EA0000429152980E197E20E94541C682FC8015B
:103EB000A7010E94DD1C77C027B730E0F901E1704F
:103EC000F07020FDF9CFB092570084911AC007B668
:103ED00000FCFDCFE3E0F0E0B0925700849111C008
:103EE00007B600FCFDCFE2E0F0E0B092570084910D
:103EF00008C007B600FCFDCFE1E0F0E0B09257004B
:103F00008491082F10E04FC080E197E20E94541C7A
:103F1000082F10E007B600FCFDCFF999FECFE1E0D5
:103F2000F0E0082EB0925700E8953AC08DE00E946C
:103F3000481C07B600FCFDCFF999FECFA0925700B0
:103F4000E895E0910001F0910101099583CE83E5A8
:103F50002AC086E00E94481C84E90E94481C8EE129
:103F600022C080E020C080E50E94481C8DE40E94B1
:103F7000481C82E40E94481C8CE40E94481C80E299
:103F80000E94481C80E20E94481C80E20CC080E332
:103F90000E94481C81E307C080E197E20E94771CE1
:103FA0008DE001C08FE30E94481C54CEF999FECFEA
:103FB00092BD81BDF89A992780B50895262FF99969
:103FC000FECF1FBA92BD81BD20BD0FB6F894FA9AFC
:0C3FD000F99A0FBE01960895F894FFCFF7
:0400000300003800C1
:00000001FF
